:020000040800F2
:10000000601100209D0100087713000819120008F4
:1000100075130008010300087D17000800000000A8
:100020000000000000000000000000007B1300083A
:100030000303000800000000791300087D13000886
:10004000B7010008B7010008B7010008B7010008B0
:10005000B7010008B7010008B7010008B7010008A0
:10006000B7010008B7010008B7010008B701000890
:10007000B7010008B7010008B7010008B701000880
:10008000B7010008B7010008B7010008B701000870
:10009000B7010008B7010008B7010008B701000860
:1000A000B7010008B7010008B7010008B701000850
:1000B000B7010008B7010008B7010008B701000840
:1000C000B7010008B7010008B7010008B701000830
:1000D000B7010008F516000801170008B70100086D
:1000E000B7010008B7010008B7010008B701000810
:1000F000B7010008B7010008B7010008B701000800
:10010000B7010008B7010008B7010008B7010008EF
:10011000B7010008B7010008B7010008B7010008DF
:10012000B7010008B7010008B7010008B7010008CF
:10013000B7010008B7010008B7010008B7010008BF
:10014000B7010008B7010008B7010008B7010008AF
:10015000B7010008B7010008B7010008B70100089F
:10016000B7010008B7010008B7010008B70100088F
:10017000B7010008B7010008B7010008000000003F
:10018000B7010008B7010008DFF80CD000F07AF8DA
:1001900000480047B1190008601100200648804758
:1001A00006480047FEE7FEE7FEE7FEE7FEE7FEE75C
:1001B000FEE7FEE7FEE7FEE72514000889010008D8
:1001C0002DE9F05F0546002092469B46884606468C
:1001D000814640241BE0284641464746224600F01F
:1001E00041F853465A46C01A914110D31146184659
:1001F000224600F028F82D1A67EB01084F462246E8
:100200000120002100F01FF817EB00094E41201ECD
:10021000A4F10104DFDC484631462A464346BDE8E6
:10022000F09FD2B201E000F8012B491EFBD27047CB
:100230000022F6E710B513460A4604461946FFF7B2
:10024000F0FF204610BD202A04DB203A00FA02F11C
:10025000002070479140C2F1200320FA03F31943B4
:1002600090407047202A04DB203A21FA02F0002156
:10027000704721FA02F3D040C2F1200291400843B6
:1002800019467047064C074D06E0E06840F0010350
:1002900094E8070098471034AC42F6D3FFF778FF94
:1002A000501B0008701B000838B50446FE2822D0F9
:1002B00012480078F8B101F019FB002818D0042189
:1002C000684601F0A9FB042811D19DF80000A04266
:1002D0000DD19DF80110022909D19DF80210801C52
:1002E0000844C0439DF80310C0B2814201D00020F1
:1002F00038BD01F089FB012038BD0000100000204E
:10030000FEE7704772B6FEE790F83510022903D079
:100310008021416501207047052180F83510006873
:10032000016821F001010160002070472DE9F84FBC
:1003300000224FF0010803254FF00F0E0B6808FA5A
:1003400002F42340A3426ED14E68012E05D0022E46
:1003500003D0112E01D0122E12D186684FEA420C22
:1003600005FA0CF7BE43CF6807FA0CF737438760EE
:100370004668A6430C79C4F30014944034434460A7
:10038000C668570005FA07FC8C6826EA0C06BC40D4
:100390003443C4604C68022C01D0122C13D1D40811
:1003A00000EB8404A346D4F8209054074FEAD46AA3
:1003B0000EFA0AF629EA06090E6906FA0AF646EA6C
:1003C0000906CBF8206006680C7926EA0C0604F0D2
:1003D0000304BC40344304604C68E40065D5364CEB
:1003E000266846F480462660246822F0030604F45A
:1003F00080440094314C3444A446D4F8084896070D
:10040000370F0EFA07F6B4432D4EB04201D1002645
:1004100024E02C4EB04201D101261FE02A4EB0420A
:1004200002D102261AE040E0284EB04201D1032654
:1004300014E0274EB04201D104260FE0254EB04211
:1004400001D105260AE0244EB04201D1062605E07E
:10045000224EB04201D1072600E00826BE402643C6
:10046000CCF808681E4E34684F689C43FF0300D5E3
:100470001C4334601A4C241D26684F689E43BF03FA
:1004800000D51E432660164E083634684F689C43DC
:10049000FF0200D51C433460114E0C3634684F689F
:1004A0009C43BF0200D51C433460521C102AFFF449
:1004B00045AFBDE8F88F00004438024000300140ED
:1004C000000002400004024000080240000C02400C
:1004D000001002400014024000180240001C0240BC
:1004E000003C014001488068704700000000002087
:1004F00070B5040025D094F83D00002520B984F89B
:100500003C50204600F0B8F8242084F83D002068D4
:10051000016821F0010101602068016841F4004197
:1005200001602068016821F40041016000F00CFACC
:100530004D4A6168914201D84C4900E04C498842DB
:1005400001D2012070BD4B492368B0FBF1F15E6818
:1005500026F03F060E435E606368934206D94FF46F
:10056000967359434FF47A73B1FBF3F12368491C36
:100570001E6A26F03F06314319626168914210D825
:100580004900401EB0FBF1F2521CC2F30B02042AD8
:1005900001D2042022E0B0FBF1F0401CC0F30B00BC
:1005A0001CE0A268F2B301EBC10303EB0116431E8A
:1005B000B3FBF6F35B1C43F480431B0549D092B3B5
:1005C00001EBC10202EB0111401EB0FBF1F0401C37
:1005D000C0F30B0040F4804040F400402168CA6939
:1005E0004CF6FF739A431043C861D4E907100143E6
:1005F0002068026822F0C00211430160D4E90301BF
:1006000001432068826848F2FF339A4311438160B6
:10061000D4E9050108432168CA6822F0FF021043AB
:10062000C86001E00EE016E02068016841F00101B9
:1006300001602564202084F83D00256384F83E5045
:10064000002070BD01EB4106431EB3FBF6F35B1CBB
:10065000B3E70120C2E701EB4101401EB0FBF1F01E
:10066000401CC0F30B00B7E7A086010080841E0089
:1006700000093D0040420F0010B586B00446142129
:100680006846FFF7D5FD13492068884220D11248FB
:10069000016841F0020101600068694600F0020053
:1006A0000590C020009012200190012002900320AC
:1006B0000390042004900948FFF738FE06481030E4
:1006C000016841F400110160006800F40010059019
:1006D00006B010BD00540040303802400004024013
:1006E0000248816802781144816070470000002050
:1006F0000B4810B5016841F400710160016841F4D4
:1007000080610160016841F480710160032000F0A4
:100710006FF8002000F006F800F024F8002010BD6B
:10072000003C024070B50D4D04464FF47A712878B4
:10073000B1FBF0F00A490968B1FBF0F000F080FB72
:1007400048B9102C07D200222146501E00F030F884
:1007500000206C6070BD012070BD00000000002012
:100760000C0000200A4808B5016841F4804101608E
:10077000006800F4804000900548001F016841F0C7
:1007800080510160006800F08050009008BD0000BA
:1007900044380240002809DB00F01F02012191408B
:1007A0004009800000F1E020C0F80011704700000F
:1007B000F0B40E4B1B680C46C3F30223C3F10705CC
:1007C000042D00D90425191D072901D2002300E0BA
:1007D000DB1E012606FA05F1491E214099409E4084
:1007E000761E16403143F0BC00F0F6BF0CED00E081
:1007F000064900F0070208684FF6FF03184040EA78
:100800000220034A10430860704700000CED00E02E
:100810000000FA052DE9F0470E46050065D0DFF827
:100820001481D8F80000F7B200F00F00B04207D2F0
:1008300088F80070D8F8000000F00F00B04254D1E2
:1008400028683D4C810712D5400703D5206840F445
:10085000E05020602878000703D5206840F460400D
:1008600020602068A96820F0F00008432060287804
:10087000C0072DD0304968680839012812D00228F5
:1008800013D0032811D00968890700292DDA2168BF
:1008900021F0030101432160FFF724FE814641F26C
:1008A000883A0EE009688903EFE709688901ECE7F7
:1008B000FFF718FEA0EB0901514502D90320BDE85E
:1008C000F0872068696800F00C00B0EB810FEFD171
:1008D000D8F80010404601F00F01B14207D9077067
:1008E000006800F00F00B04201D00120E7E728784F
:1008F000400705D52068E96820F4E05008432060EF
:100900002878000706D52068296920F4604040EA6D
:10091000C100206000F038F82168084AC1F30311D3
:10092000515CC8400649086006480068FFF7FAFEB7
:100930000020C4E7003C024008380240381B000891
:100940000C000020040000200448054900680968E4
:10095000044AC1F38221515CC84070470C0000205A
:1009600008380240481B0008044805490068096827
:10097000044AC1F34231515CC84070470C0000206A
:1009800008380240481B0008154810B5006810F0F0
:100990000C02144813D01449042A0FD0082A0ED18F
:1009A0000F4C241F2268236802F03F025B0207D528
:1009B0002068C0F38810A0FB010106E0084610BDC6
:1009C0002168C1F38811A1FB00010023FFF7F8FBA8
:1009D0002168C1F30141491C4900B0FBF1F010BD91
:1009E000083802400024F40040787D012DE9F84FDA
:1009F00004006ED02078DFF83C93C007A9F104050D
:100A00004AD009F104000168C1F38101012908D02D
:100A10000068C0F3810002280AD1D9F80000400222
:100A200006D52868800337D560680028E1D033E018
:100A30006068B0F5803F10D0B0F5A02F286810D0C6
:100A400020F480302860286820F4802028606068C6
:100A5000A8B1FFF747FD06460DE0286840F4803056
:100A6000F4E740F480202860F7E700BFFFF73AFD85
:100A7000801B642873D828688003F7D50CE0FFF743
:100A800031FD064605E000BFFFF72CFD801B642802
:100A9000F0D828688003F7D42078DFF89C8280079C
:100AA0004FF0000A3ED5A348001D016811F00C0F5D
:100AB00008D00068C0F3810002280BD1D9F80000EB
:100AC000400207D42868800716D5E068012800D1C5
:100AD00012E02BE1E068B8B10120C8F80000FFF790
:100AE00001FD064605E000BFFFF7FCFC801B022865
:100AF000C0D828688007F7D52868216920F0F80059
:100B000040EAC10028600DE0C8F800A0FFF7EAFC49
:100B1000064604E0FFF7E6FC801B02281FD8286881
:100B20008007F7D42078000722D5824E8348616978
:100B3000703671B101210160FFF7D4FC074604E073
:100B4000FFF7D0FCC01B022809D830688007F7D512
:100B50000EE0C0F800A0FFF7C5FC074605E082E004
:100B6000FFF7C0FCC01B02287DD830688007F7D48F
:100B70002078400768D5DFF8BCB100270BF13C0BAB
:100B8000DBF80000C0000BD4DBF8001041F080510E
:100B9000CBF80010DBF80000012700F08050009037
:100BA000674E3068C00510D4306840F48070306003
:100BB000FFF798FC009005E0FFF794FC0099401ABD
:100BC000022850D83068C005F6D55A4EA0686C3659
:100BD00001280FD00528306810D020F001003060C7
:100BE000306820F004003060A068B8B1FFF77AFCEC
:100BF00000900FE0306840F00100F4E740F004009E
:100C00003060F7E7FFF76EFC0099411A41F2883037
:100C1000814266D830688007F4D50EE0FFF762FCA9
:100C2000009007E0FFF75EFC0099411A41F288301E
:100C3000814256D830688007F4D42FB1DBF8001019
:100C400021F08051CBF80010A069C8B33949091DC3
:100C50000968C1F3810102294AD00228504607D011
:100C6000C8F8600000E03CE0FFF73CFC04463BE0D5
:100C70004746C8F86000FFF735FC064605E000BFB0
:100C8000FFF730FC801B02282BD828688001F7D49E
:100C9000D4E907010843A16A2A4A490802EB014145
:100CA000626A41EA8211084394F82C1040EA01611B
:100CB000C9F8001001203866FFF714FC044606E06E
:100CC00036E000BFFFF70EFC001B022809D8286899
:100CD0008001F7D52CE000BFFFF704FC001B0228C1
:100CE00002D90320BDE8F88F28688001F4D41FE002
:100CF0000128F7D0D9F80000E26900F480019142A0
:100D000014D1226A00F03F0191420FD147F6C07121
:100D1000626A0140914209D1A26A00F440319142D5
:100D200004D1E16A00F07060884201D00120D9E767
:100D30000020D7E70438024000004742800E4742B7
:100D4000007000400000FFFF70B5040005D00025D2
:100D5000A56294F8510010B106E0012070BD84F83E
:100D60005050204600F030F8022084F851002068EE
:100D7000016821F040010160D4E901010843D4E990
:100D800003121143084361690843218B01F4007188
:100D90000843E1690843216A0843A16A08432168BE
:100DA0000860A069042101EA1040616A08432168D3
:100DB00048602068C16921F40061C1616565012056
:100DC00084F85100002070BD10B586B0044614218F
:100DD0006846FFF72DFA13492068884220D112484F
:100DE0000021026842F480520260006800F48050E2
:100DF00005900D481438026842F001020260006854
:100E000000F001000590E02000900220CDE90101F2
:100E1000032003900520049069460448FFF786FAF2
:100E200006B010BD003001404438024000000240CE
:100E300002480168491C016070470000280000203A
:100E400010B5401EB0F1807F01D3012010BD4FF0DE
:100E5000E02460610F21601700F0BEFC0020A0615B
:100E600007202061002010BD10B5FFF7E1FF10BD85
:100E70007047000070B5026804461068D168536975
:100E800010F00F0F52D003F0010501F490762E43BD
:100E90005FD0C20705D0CA0503D5E26B42F001025C
:100EA000E263420705D5DA0703D0E26B42F00202A3
:100EB000E263820705D5DA0703D0E26B42F0040251
:100EC000E263020707D501F020022A4303D0E26B58
:100ED00042F00802E263E26B002A33D0800604D5B8
:100EE000880602D5204600F0C1FA20684069E16B0F
:100EF000C0F38010090700D428B3204600F0A8FAF8
:100F00002068416949061AD5416921F040014161D3
:100F1000606BA0B11B490165606BFFF7F5F9002814
:100F200010D0606B016DBDE870400847830610D596
:100F30008B060ED52046BDE8704000F097BA2046DB
:100F4000FFF796FF70BD2046FFF792FF0020E06399
:100F500070BD030606D50B0604D52046BDE87040DB
:100F600000F064BB4006F3D54806F1D5D1682046B1
:100F700021F04001D160202184F8391000F04BF9B4
:100F800070BD00004114000870B5040004D094F84E
:100F90003900002510B106E0012070BD84F83850FA
:100FA000204600F023F8242084F839002068C16826
:100FB00021F40051C160204600F0A4FA20680169C4
:100FC00021F4904101612068416921F02A014161C9
:100FD0002068C16841F40051C160E563202084F8B5
:100FE000390084F83A00002070BD0000F0B587B0E9
:100FF000044614216846FFF71BF92D4F2368002291
:101000002C490224032507262B48BB4229D1294B12
:1010100014331F6847F010071F601B6803F01003AC
:1010200005930B6843F001030B60096802AB01F004
:10103000010105916902CDE9001483E86400694665
:10104000FFF774F9002211462520FFF7B1FB252098
:10105000FFF7A0FB01221949194800F035F807B045
:10106000F0BD184FBB42FAD1124B10331F6847F442
:1010700000371F601B6803F4003305930B6843F0CF
:1010800001030B60096802AB01F0010105910C211D
:10109000CDE9001483E864006946FFF747F90022B0
:1010A00011462620FFF784FB2620FFF773FBD6E7C7
:1010B0000010014030380240000002401C000020B7
:1010C000DC0000200044004090F83A30202B22D170
:1010D000F9B1F2B190F83830012B1CD081628285D1
:1010E000C2850021C163222280F83A2080F838109E
:1010F0000168CA6842F48072CA6001684A6942F0B5
:1011000001024A610068C16841F02001C16000200D
:1011100070470120704702207047000000680B49AB
:10112000884212D10A480A490A4A00788B68D0548A
:101130008868401CC21700EB526222F07F02801ABE
:10114000886001220448FFF7BFBF704700100140CC
:101150001C000020DC010020DC0000202DE9F84309
:10116000044690F839001F4616460D46202850D1F7
:10117000B5B1AEB194F8380001284AD0012084F806
:1011800038004FF00008C4F83C80212084F8390072
:10119000FFF7A8F9A6848146E68484F8388026E023
:1011A0000120BDE8F883E08C401EE084A0684B4637
:1011B000B0F5805F4FF000024FF0800120460097AD
:1011C00003D000F064FAE8B90DE000F060FAC8B9A5
:1011D00028882168C0F308004860206908B16D1CA8
:1011E00005E0AD1C03E0216815F8010B4860E08CB8
:1011F0000028D8D14B46002240212046009700F01D
:1012000046FA08B10320CCE7202084F839000020FA
:10121000C7E70220C5E77047FEE70000064B10B5A0
:101220005C78C2F30723D2B214B103700A7010BD08
:101230000B70027010BD0000100000200D4808B5B2
:10124000016841F080010160016801F080010091B6
:10125000016841F001010160016801F001010091A4
:10126000016841F002010160006800F00200009096
:1012700008BD0000303802400D4810B50B49016030
:101280000C49416000214FF480428160C0E90312A3
:1012900041618161C1610162FFF72AF9002803D031
:1012A000BDE81040FFF72EB810BD0000005400400C
:1012B00030000020A08601000F4810B50D490160E4
:1012C0004FF48271416000218160C1604FF400726F
:1012D0000161C0E90512C1610162416281620A21B6
:1012E000C162FFF731FD002803D0BDE81040FFF7D1
:1012F00009B810BD00300140840000200C4810B532
:101300000A4901600B494160002181600C22C160E3
:10131000C0E904128161C161FFF736FE002803D0E5
:10132000BDE81040FEF7EEBF10BD00000010014008
:10133000DC00002040420F000C4810B50A49016053
:101340000B494160002181600C22C160C0E9041298
:101350008161C161FFF718FE002803D0BDE810408D
:10136000FEF7D0BF10BD0000004400401C0100206B
:1013700040420F00FEE7FEE77047704710B5FFF7E9
:10138000AFF9BDE81040FFF76FBD000030B593B076
:1013900030216846FEF74CFF14210CA8FEF748FFE9
:1013A0001E480025016841F080510160006800F08E
:1013B000805011901A48016841F480410160006832
:1013C000022400F48040119001200090000401905C
:1013D0008001CDE90640192008904FF4A870CDE9AE
:1013E000090404200B906846FFF700FB08B172B6B1
:1013F000FEE70CA90F2081E831004FF4A0500F90B8
:101400004FF48050109005210CA8FFF703FA002834
:1014100001D072B6FEE713B030BD00004038024084
:10142000007000400548016841F470010160034903
:101430004FF00060803908607047000088ED00E0E0
:1014400010B5806B0021C185C184FFF711FD10BD6F
:101450000168CA6822F49072CA6001684A6922F081
:1014600001024A61202180F83A10704710B590F8C7
:101470003A10222901D0022010BD8168B1F5805FA9
:1014800011D00169002901681FD0496801F07F036C
:10149000816A4A1C82620B70C18D491E0904090CC5
:1014A000C18518D02BE00269816A002A026852685F
:1014B00005D0D2B20A80816A491C8162ECE7C2F38E
:1014C00008020A80816A891CF7E74A68816A4B1C16
:1014D00083620A70E0E70168CA6822F02002CA60ED
:1014E0000168CA6822F48072CA6001684A6922F001
:1014F00001024A61202180F83A10FFF70FFE002018
:1015000010BD00002DE9F041044600680169E26861
:1015100021F44051114301612169A068E269084347
:101520006169114308432168CA6849F20C639A4310
:101530000243CA6020684169A26921F440711143E5
:101540004161E069192764253226B0F5004F354A1C
:10155000354920684FF0000806D0884201D09042FB
:1015600036D1FFF701FA35E0884201D0904202D12E
:10157000FFF7FAF901E0FFF7E7F961684A18A0FB05
:10158000070148EB0803FEF71BFE0146B0FBF5F030
:101590000201B1FBF5F06FF01803584301EB800036
:1015A00006EBC000B0FBF5F000F0F80002EB4002E3
:1015B000B1FBF5F0584301EB800006EBC000B0FB37
:1015C000F5F000F00700216810448860BDE8F08164
:1015D000FFF7BAF961688B0F8A00A0FB0701FEF7DD
:1015E000EFFD0146B0FBF5F06FF01802504301EB40
:1015F000800006EB0010B0FBF5F000F0F002B1FB4C
:10160000F5F002EB0012B1FBF5F06FF01803584350
:1016100001EB800006EB0010B0FBF5F000F00F00CE
:10162000D1E70000001401400010014090F839108B
:10163000212901D0022070478168B1F5805F016ADD
:101640000BD04A1C0262026809785160C18C491EA5
:101650000904090CC1840ED017E009880268C1F39F
:101660000801516001690029016A02D0491C016228
:10167000ECE7891CFBE70168CA6822F08002CA60B7
:101680000068C16841F04001C160002070472DE949
:10169000F041984617460E460446069D1DE0681C1C
:1016A0001BD02DB1FEF71EFFA0EB0800A84214D9F5
:1016B0002068C16821F4D071C1602068416921F0BF
:1016C00001014161202084F8390084F83A000020AB
:1016D00084F838000320BDE8F0812068006836EA0D
:1016E000000004D00020B842D9D00020F3E7012048
:1016F000F9E700000148FFF7BDBB0000DC00002057
:101700000148FFF7B7BB00001C0100200248002180
:1017100081604160704700001C0000200A49486851
:101720008A6890420CD009484A68805C4A68521C1A
:10173000D31702EB536323F07F03D21A4A6070473A
:101740004FF0FF30704700001C000020DC0100203B
:101750002DE9F0410D46064600244FF6FF7707E0DD
:1017600031193B4601220448FFF7F8FC641CE4B23F
:10177000AC42F5D3BDE8F081DC000020FEE72DE9A6
:10178000FC4115466C4606460A461F462046611C2B
:10179000FFF744FD2A46E11CA01CFFF73FFD3A4637
:1017A000611D201DFFF73AFD06236A462A213046B7
:1017B00000F0CEF8BDE8FC810FB4054B10B503A9CD
:1017C000044A029800F027F810BC5DF814FB0000F2
:1017D000391900082C0000200907090E002804DB35
:1017E00000F1E02080F80014704700F00F0000F1D5
:1017F000E02080F8141D704702E008C8121F08C1DD
:10180000002AFAD170477047002001E001C1121F81
:10181000002AFBD170472DE9F84F99469246884639
:101820000546002706E025280AD051464A4690473B
:101830006D1C7F1C28780028F5D13846BDE8F88F4C
:10184000002315F8011F18462E2915D115F8011F80
:1018500004232A290DD06FF02F022978A1F130043A
:10186000092C09D800EB800002EB400008446D1CF5
:10187000F3E758F8040B6D1C2A78002ADDD0632AA0
:1018800007D0732A0FD0104651464A4690477F1C16
:101890002AE018F8042B8DF8002000218DF80110A3
:1018A0006E46012103E058F8046B4FF0FF315A07F0
:1018B0004FF0000401D409E0641C84420BDA8C422E
:1018C000FADB325D002AF7D105E0641C8C42FCDBB8
:1018D000305D0028F9D1274404E016F8010B514689
:1018E0004A469047641EF8D26D1CA3E738B5002421
:1018F00025460121684600F08FF800280FD09DF89A
:101900000010E0B260F30F2461F30704FF2901D156
:10191000FF2805D06D1CEDB20A2DEAD9002038BD94
:10192000012038BD03490A6810440A688242FCD38A
:10193000704700002800002013B54FF6FF73012206
:1019400069460248FFF70AFC00981CBDDC00002035
:10195000F8B51C4615460E46074600F05AF8032017
:10196000009023462A463146384600F087F800F0BA
:1019700075F83846BDE8F840FEF796BC70B540F201
:10198000DC54234600224FF47A710120FFF7F7FE62
:1019900040F2F2252846FFF7C5FF23460022142116
:1019A0000120FFF7ECFE2846BDE87040FFF7BABF04
:1019B0001FB5FEF79DFEFFF7E9FCFFF73FFCFFF7C1
:1019C0005BFCFFF779FCFFF799FCFFF7B5FC06A37A
:1019D0000FCB8DE80F00694607A0FFF7EDFE00BFB3
:1019E000FFF7CCFFFCE70000FFFF818A83A980811D
:1019F000FF80808080C800002573000001480068D7
:101A000070470000280000201E20401EC0B2FCD2FB
:101A10007047FFF77BBE00002DE9F0410F460646F8
:101A20000024FFF7EBFF0546DFF82C80FFF776FE7A
:101A3000411C05D006B13055641CFFF7DFFF054699
:101A4000BC4206DAFFF7DAFFD8F80410401B8842E0
:101A5000ECD92046BDE8F0811400002010B5054CFB
:101A60002178002904D00448FFF772FE002020707E
:101A700010BD0000140000205C0100202DE9FF478C
:101A80008046DDF830904FF000008DF808004FF0F0
:101A9000FF008DF800008DF801001C4615000F4670
:101AA0004FF002068DF802808DF8049007D0E01CFC
:101AB000C6B28DF803608DF80570062102E08DF83E
:101AC00003600521684600F023F808EB060101EBEE
:101AD000090038448DF808007DB1002107E0685CFA
:101AE0009DF80820491C10448DF80800C9B2A14295
:101AF000F5D32146284600F00BF89DF80800012197
:101B0000C0438DF8080002A800F002F8BDE8FF8786
:101B100030B5074B074C07E01A78802A04D210F83A
:101B2000015BA554521C1A70491EF5D2187830BDBD
:101B3000140000205C0100200000000000000000F4
:101B40000102030406070809000000000102030463
:101B5000701B00080000002030000000F81700088B
:101B6000A01B0008300000203011000008180008F9
:101B70000100000010000000000000000024F4003C
:101B80000101000000000000020000000000000051
:101B90000000000000000000000000000000000045
:040000050800018965
:00000001FF
